{
  "contractName": "Escrow",
  "abi": [
    {
      "constant": true,
      "inputs": [],
      "name": "payer",
      "outputs": [
        {
          "name": "",
          "type": "address"
        }
      ],
      "payable": false,
      "stateMutability": "view",
      "type": "function"
    },
    {
      "constant": true,
      "inputs": [],
      "name": "lawyer",
      "outputs": [
        {
          "name": "",
          "type": "address"
        }
      ],
      "payable": false,
      "stateMutability": "view",
      "type": "function"
    },
    {
      "constant": true,
      "inputs": [],
      "name": "amount",
      "outputs": [
        {
          "name": "",
          "type": "uint256"
        }
      ],
      "payable": false,
      "stateMutability": "view",
      "type": "function"
    },
    {
      "constant": true,
      "inputs": [],
      "name": "payee",
      "outputs": [
        {
          "name": "",
          "type": "address"
        }
      ],
      "payable": false,
      "stateMutability": "view",
      "type": "function"
    },
    {
      "inputs": [
        {
          "name": "_payer",
          "type": "address"
        },
        {
          "name": "_payee",
          "type": "address"
        },
        {
          "name": "_amount",
          "type": "uint256"
        }
      ],
      "payable": false,
      "stateMutability": "nonpayable",
      "type": "constructor"
    },
    {
      "constant": false,
      "inputs": [],
      "name": "deposit",
      "outputs": [],
      "payable": true,
      "stateMutability": "payable",
      "type": "function"
    },
    {
      "constant": false,
      "inputs": [],
      "name": "release",
      "outputs": [],
      "payable": false,
      "stateMutability": "nonpayable",
      "type": "function"
    },
    {
      "constant": true,
      "inputs": [],
      "name": "balanceOf",
      "outputs": [
        {
          "name": "",
          "type": "uint256"
        }
      ],
      "payable": false,
      "stateMutability": "view",
      "type": "function"
    }
  ],
  "bytecode": "0x608060405234801561001057600080fd5b5060405160608061072f8339810180604052606081101561003057600080fd5b81019080805190602001909291908051906020019092919080519060200190929190505050826000806101000a81548173ffffffffffffffffffffffffffffffffffffffff021916908373ffffffffffffffffffffffffffffffffffffffff16021790555081600160006101000a81548173ffffffffffffffffffffffffffffffffffffffff021916908373ffffffffffffffffffffffffffffffffffffffff16021790555033600260006101000a81548173ffffffffffffffffffffffffffffffffffffffff021916908373ffffffffffffffffffffffffffffffffffffffff160217905550806003819055505050506105ff806101306000396000f3fe60806040526004361061008d576000357c01000000000000000000000000000000000000000000000000000000009004806386d1a69f1161006b57806386d1a69f1461016b578063aa8c217c14610182578063ae90b213146101ad578063d0e30db0146102045761008d565b8063123119cd146100925780633bfb6e31146100e9578063722713f714610140575b600080fd5b34801561009e57600080fd5b506100a761020e565b604051808273ffffffffffffffffffffffffffffffffffffffff1673ffffffffffffffffffffffffffffffffffffffff16815260200191505060405180910390f35b3480156100f557600080fd5b506100fe610233565b604051808273ffffffffffffffffffffffffffffffffffffffff1673ffffffffffffffffffffffffffffffffffffffff16815260200191505060405180910390f35b34801561014c57600080fd5b50610155610259565b6040518082815260200191505060405180910390f35b34801561017757600080fd5b50610180610278565b005b34801561018e57600080fd5b5061019761041d565b6040518082815260200191505060405180910390f35b3480156101b957600080fd5b506101c2610423565b604051808273ffffffffffffffffffffffffffffffffffffffff1673ffffffffffffffffffffffffffffffffffffffff16815260200191505060405180910390f35b61020c610449565b005b6000809054906101000a900473ffffffffffffffffffffffffffffffffffffffff1681565b600260009054906101000a900473ffffffffffffffffffffffffffffffffffffffff1681565b60003073ffffffffffffffffffffffffffffffffffffffff1631905090565b6003543073ffffffffffffffffffffffffffffffffffffffff16311415156102eb576040517f08c379a000000000000000000000000000000000000000000000000000000000815260040180806020018281038252602f815260200180610584602f913960400191505060405180910390fd5b600260009054906101000a900473ffffffffffffffffffffffffffffffffffffffff1673ffffffffffffffffffffffffffffffffffffffff163373ffffffffffffffffffffffffffffffffffffffff161415156103b0576040517f08c379a000000000000000000000000000000000000000000000000000000000815260040180806020018281038252601d8152602001807f6f6e6c79206c61777965722063616e2072656c656173652066756e647300000081525060200191505060405180910390fd5b600160009054906101000a900473ffffffffffffffffffffffffffffffffffffffff1673ffffffffffffffffffffffffffffffffffffffff166108fc6003549081150290604051600060405180830381858888f1935050505015801561041a573d6000803e3d6000fd5b50565b60035481565b600160009054906101000a900473ffffffffffffffffffffffffffffffffffffffff1681565b6000809054906101000a900473ffffffffffffffffffffffffffffffffffffffff1673ffffffffffffffffffffffffffffffffffffffff163373ffffffffffffffffffffffffffffffffffffffff1614151561050d576040517f08c379a00000000000000000000000000000000000000000000000000000000081526004018080602001828103825260188152602001807f53656e646572206d75737420626520746865207061796572000000000000000081525060200191505060405180910390fd5b6003543073ffffffffffffffffffffffffffffffffffffffff163111151515610581576040517f08c379a00000000000000000000000000000000000000000000000000000000081526004018080602001828103825260218152602001806105b36021913960400191505060405180910390fd5b56fe63616e6e6f742072656c656173652066756e6473206265666f72652066756c6c20616d6f756e742069732073656e7443616e742073656e64206d6f7265207468616e20657363726f7720616d6f756e74a165627a7a7230582013a20d999206ebb9d622ff0787330f6179f5e11e48795c2565ac7ee6f8dee6220029",
  "source": "pragma solidity ^0.5.2;\n\ncontract Escrow{\n  address public payer;\n  address payable public payee;\n  address public lawyer;\n  uint public amount;\n  \n  constructor(\n    address _payer, \n    address payable _payee, \n    uint _amount) \n    public {\n    payer = _payer;\n    payee = _payee;\n    lawyer = msg.sender; \n    amount = _amount;\n  }\n\n  function deposit() payable public {\n    require(msg.sender == payer, 'Sender must be the payer');\n    require(address(this).balance <= amount, 'Cant send more than escrow amount');\n  }\n\n  function release() public {\n    require(address(this).balance == amount, 'cannot release funds before full amount is sent');\n    require(msg.sender == lawyer, 'only lawyer can release funds');\n    payee.transfer(amount);\n  }\n  \n  function balanceOf() view public returns(uint) {\n    return address(this).balance;\n  }\n}\n",
  "sourcePath": "/Users/joshuadavid/Documents/Repositories/Blockchain/eattheblocks-pro/dapp-30/day10-escrow/frontend/start/contracts/Escrow.sol",
  "compiler": {
    "name": "solc",
    "version": "0.5.2+commit.1df8f40c.Emscripten.clang"
  },
  "schemaVersion": "3.3.3",
  "updatedAt": "2021-01-26T03:39:59.415Z",
  "networkType": "ethereum",
  "devdoc": {
    "methods": {}
  },
  "userdoc": {
    "methods": {}
  }
}