{
  "contractName": "Deed",
  "abi": [
    {
      "inputs": [
        {
          "internalType": "address",
          "name": "_lawyer",
          "type": "address"
        },
        {
          "internalType": "address payable",
          "name": "_beneficiary",
          "type": "address"
        },
        {
          "internalType": "uint256",
          "name": "fromNow",
          "type": "uint256"
        }
      ],
      "payable": true,
      "stateMutability": "payable",
      "type": "constructor"
    },
    {
      "constant": true,
      "inputs": [],
      "name": "beneficiary",
      "outputs": [
        {
          "internalType": "address payable",
          "name": "",
          "type": "address"
        }
      ],
      "payable": false,
      "stateMutability": "view",
      "type": "function"
    },
    {
      "constant": true,
      "inputs": [],
      "name": "earliest",
      "outputs": [
        {
          "internalType": "uint256",
          "name": "",
          "type": "uint256"
        }
      ],
      "payable": false,
      "stateMutability": "view",
      "type": "function"
    },
    {
      "constant": true,
      "inputs": [],
      "name": "lawyer",
      "outputs": [
        {
          "internalType": "address",
          "name": "",
          "type": "address"
        }
      ],
      "payable": false,
      "stateMutability": "view",
      "type": "function"
    },
    {
      "constant": false,
      "inputs": [],
      "name": "withdraw",
      "outputs": [],
      "payable": false,
      "stateMutability": "nonpayable",
      "type": "function"
    }
  ],
  "bytecode": "0x608060405260405161041f38038061041f8339818101604052606081101561002657600080fd5b81019080805190602001909291908051906020019092919080519060200190929190505050826000806101000a81548173ffffffffffffffffffffffffffffffffffffffff021916908373ffffffffffffffffffffffffffffffffffffffff16021790555081600160006101000a81548173ffffffffffffffffffffffffffffffffffffffff021916908373ffffffffffffffffffffffffffffffffffffffff160217905550804201600281905550505050610338806100e76000396000f3fe608060405234801561001057600080fd5b506004361061004c5760003560e01c806338af3eed146100515780633bfb6e311461009b5780633ccfd60b146100e55780635dd65d3b146100ef575b600080fd5b61005961010d565b604051808273ffffffffffffffffffffffffffffffffffffffff1673ffffffffffffffffffffffffffffffffffffffff16815260200191505060405180910390f35b6100a3610133565b604051808273ffffffffffffffffffffffffffffffffffffffff1673ffffffffffffffffffffffffffffffffffffffff16815260200191505060405180910390f35b6100ed610158565b005b6100f76102fd565b6040518082815260200191505060405180910390f35b600160009054906101000a900473ffffffffffffffffffffffffffffffffffffffff1681565b6000809054906101000a900473ffffffffffffffffffffffffffffffffffffffff1681565b6000809054906101000a900473ffffffffffffffffffffffffffffffffffffffff1673ffffffffffffffffffffffffffffffffffffffff163373ffffffffffffffffffffffffffffffffffffffff161461021a576040517f08c379a000000000000000000000000000000000000000000000000000000000815260040180806020018281038252600b8152602001807f6c6177796572206f6e6c7900000000000000000000000000000000000000000081525060200191505060405180910390fd5b600254421015610292576040517f08c379a00000000000000000000000000000000000000000000000000000000081526004018080602001828103825260098152602001807f746f6f206561726c79000000000000000000000000000000000000000000000081525060200191505060405180910390fd5b600160009054906101000a900473ffffffffffffffffffffffffffffffffffffffff1673ffffffffffffffffffffffffffffffffffffffff166108fc479081150290604051600060405180830381858888f193505050501580156102fa573d6000803e3d6000fd5b50565b6002548156fea265627a7a723158208959522140f7072fccf5e820342e5665939865ec57ed8691f043ba588a79ee5d64736f6c63430005100032",
  "source": "pragma solidity ^0.5.0;\n\ncontract Deed {\n  address public lawyer;\n  address payable public beneficiary;\n  uint public earliest;\n\n  constructor(\n    address _lawyer, \n    address payable _beneficiary, \n    uint fromNow) \n    payable \n    public {\n    lawyer = _lawyer;\n    beneficiary = _beneficiary; \n    earliest = now + fromNow;\n  }\n\n  function withdraw() public {\n    require(msg.sender == lawyer, 'lawyer only');\n    require(now >= earliest, 'too early');\n    beneficiary.transfer(address(this).balance);\n  }\n}\n",
  "sourcePath": "/Users/joshuadavid/Documents/Repositories/Blockchain/eattheblocks-pro/dapp-30/day8-deed/frontend/end/contracts/Deed.sol",
  "compiler": {
    "name": "solc",
    "version": "0.5.16+commit.9c3226ce.Emscripten.clang"
  },
  "schemaVersion": "3.3.3",
  "updatedAt": "2021-01-21T04:07:17.281Z",
  "networkType": "ethereum",
  "devdoc": {
    "methods": {}
  },
  "userdoc": {
    "methods": {}
  }
}